{
  "_format": "hh-sol-artifact-1",
  "contractName": "Greeter",
  "sourceName": "contracts/Greeter.sol",
  "abi": [
    {
      "inputs": [
        {
          "internalType": "string",
          "name": "_greeting",
          "type": "string"
        }
      ],
      "stateMutability": "nonpayable",
      "type": "constructor"
    },
    {
      "inputs": [],
      "name": "greet",
      "outputs": [
        {
          "internalType": "string",
          "name": "",
          "type": "string"
        }
      ],
      "stateMutability": "view",
      "type": "function"
    },
    {
      "inputs": [
        {
          "internalType": "string",
          "name": "_greeting",
          "type": "string"
        }
      ],
      "name": "setGreeting",
      "outputs": [],
      "stateMutability": "nonpayable",
      "type": "function"
    }
  ],
  "bytecode": "0x60806040523480156200001157600080fd5b5060405162000e4a38038062000e4a833981810160405281019062000037919062000338565b620000536771dedccd95558f6360c01b620000f760201b60201c565b6200006f6766bf4486ee4cb1d960c01b620000f760201b60201c565b6200008b67cc7fb59f3207b27460c01b620000f760201b60201c565b620000bb60405180606001604052806022815260200162000e286022913982620000fa60201b6200025a1760201c565b620000d767841ae2e644a1ec2b60c01b620000f760201b60201c565b8060009080519060200190620000ef929190620001fe565b5050620005d4565b50565b6200019c828260405160240162000113929190620003ca565b6040516020818303038152906040527f4b5c4277000000000000000000000000000000000000000000000000000000007bffffffffffffffffffffffffffffffffffffffffffffffffffffffff19166020820180517bffffffffffffffffffffffffffffffffffffffffffffffffffffffff8381831617835250505050620001a060201b60201c565b5050565b620001c681620001c1620001c960201b620002f617620001ea60201b60201c565b60201c565b50565b60006a636f6e736f6c652e6c6f679050600080835160208501845afa505050565b6200028f60201b620003de17819050919050565b8280546200020c90620004b6565b90600052602060002090601f0160209004810192826200023057600085556200027c565b82601f106200024b57805160ff19168380011785556200027c565b828001600101855582156200027c579182015b828111156200027b5782518255916020019190600101906200025e565b5b5090506200028b91906200029b565b5090565b6200029962000580565b565b5b80821115620002b65760008160009055506001016200029c565b5090565b6000620002d1620002cb846200042e565b62000405565b905082815260208101848484011115620002f057620002ef620005b4565b5b620002fd84828562000480565b509392505050565b600082601f8301126200031d576200031c620005af565b5b81516200032f848260208601620002ba565b91505092915050565b600060208284031215620003515762000350620005be565b5b600082015167ffffffffffffffff811115620003725762000371620005b9565b5b620003808482850162000305565b91505092915050565b6000620003968262000464565b620003a281856200046f565b9350620003b481856020860162000480565b620003bf81620005c3565b840191505092915050565b60006040820190508181036000830152620003e6818562000389565b90508181036020830152620003fc818462000389565b90509392505050565b60006200041162000424565b90506200041f8282620004ec565b919050565b6000604051905090565b600067ffffffffffffffff8211156200044c576200044b62000551565b5b6200045782620005c3565b9050602081019050919050565b600081519050919050565b600082825260208201905092915050565b60005b83811015620004a057808201518184015260208101905062000483565b83811115620004b0576000848401525b50505050565b60006002820490506001821680620004cf57607f821691505b60208210811415620004e657620004e562000522565b5b50919050565b620004f782620005c3565b810181811067ffffffffffffffff8211171562000519576200051862000551565b5b80604052505050565b7f4e487b7100000000000000000000000000000000000000000000000000000000600052602260045260246000fd5b7f4e487b7100000000000000000000000000000000000000000000000000000000600052604160045260246000fd5b7f4e487b7100000000000000000000000000000000000000000000000000000000600052605160045260246000fd5b600080fd5b600080fd5b600080fd5b600080fd5b6000601f19601f8301169050919050565b61084480620005e46000396000f3fe608060405234801561001057600080fd5b50600436106100365760003560e01c8063a41368621461003b578063cfae321714610057575b600080fd5b610055600480360381019061005091906104fb565b610075565b005b61005f61018c565b60405161006c919061057d565b60405180910390f35b6100896729fecdef3deb96fa60c01b610317565b61009d67adbc2d54a361988c60c01b610317565b6100b16706c7a994fcc4f4f360c01b610317565b61015e6040518060600160405280602381526020016107ec60239139600080546100da906106d6565b80601f0160208091040260200160405190810160405280929190818152602001828054610106906106d6565b80156101535780601f1061012857610100808354040283529160200191610153565b820191906000526020600020905b81548152906001019060200180831161013657829003601f168201915b50505050508361031a565b610172677eddba30d02ca28660c01b610317565b80600090805190602001906101889291906103e8565b5050565b60606101a267263913cbf3459d2160c01b610317565b6101b6674e963249c8f783d760c01b610317565b6101ca67c2c2bc53c1a0c43760c01b610317565b600080546101d7906106d6565b80601f0160208091040260200160405190810160405280929190818152602001828054610203906106d6565b80156102505780601f1061022557610100808354040283529160200191610250565b820191906000526020600020905b81548152906001019060200180831161023357829003601f168201915b5050505050905090565b6102f2828260405160240161027092919061059f565b6040516020818303038152906040527f4b5c4277000000000000000000000000000000000000000000000000000000007bffffffffffffffffffffffffffffffffffffffffffffffffffffffff19166020820180517bffffffffffffffffffffffffffffffffffffffffffffffffffffffff83818316178352505050506103b9565b5050565b60006a636f6e736f6c652e6c6f679050600080835160208501845afa505050565b50565b6103b4838383604051602401610332939291906105d6565b6040516020818303038152906040527f2ced7cef000000000000000000000000000000000000000000000000000000007bffffffffffffffffffffffffffffffffffffffffffffffffffffffff19166020820180517bffffffffffffffffffffffffffffffffffffffffffffffffffffffff83818316178352505050506103b9565b505050565b6103d0816103c86102f66103d3565b63ffffffff16565b50565b6103de819050919050565b6103e6610797565b565b8280546103f4906106d6565b90600052602060002090601f016020900481019282610416576000855561045d565b82601f1061042f57805160ff191683800117855561045d565b8280016001018555821561045d579182015b8281111561045c578251825591602001919060010190610441565b5b50905061046a919061046e565b5090565b5b8082111561048757600081600090555060010161046f565b5090565b600061049e61049984610647565b610622565b9050828152602081018484840111156104ba576104b96107cb565b5b6104c5848285610694565b509392505050565b600082601f8301126104e2576104e16107c6565b5b81356104f284826020860161048b565b91505092915050565b600060208284031215610511576105106107d5565b5b600082013567ffffffffffffffff81111561052f5761052e6107d0565b5b61053b848285016104cd565b91505092915050565b600061054f82610678565b6105598185610683565b93506105698185602086016106a3565b610572816107da565b840191505092915050565b600060208201905081810360008301526105978184610544565b905092915050565b600060408201905081810360008301526105b98185610544565b905081810360208301526105cd8184610544565b90509392505050565b600060608201905081810360008301526105f08186610544565b905081810360208301526106048185610544565b905081810360408301526106188184610544565b9050949350505050565b600061062c61063d565b90506106388282610708565b919050565b6000604051905090565b600067ffffffffffffffff82111561066257610661610768565b5b61066b826107da565b9050602081019050919050565b600081519050919050565b600082825260208201905092915050565b82818337600083830152505050565b60005b838110156106c15780820151818401526020810190506106a6565b838111156106d0576000848401525b50505050565b600060028204905060018216806106ee57607f821691505b6020821081141561070257610701610739565b5b50919050565b610711826107da565b810181811067ffffffffffffffff821117156107305761072f610768565b5b80604052505050565b7f4e487b7100000000000000000000000000000000000000000000000000000000600052602260045260246000fd5b7f4e487b7100000000000000000000000000000000000000000000000000000000600052604160045260246000fd5b7f4e487b7100000000000000000000000000000000000000000000000000000000600052605160045260246000fd5b600080fd5b600080fd5b600080fd5b600080fd5b6000601f19601f830116905091905056fe4368616e67696e67206772656574696e672066726f6d202725732720746f2027257327a2646970667358221220a6740d785306e4f900da1670fcc7d6e645a76e4ea32ce9d62f06d449f874a00c64736f6c634300080700334465706c6f79696e67206120477265657465722077697468206772656574696e673a",
  "linkReferences": {},
  "deployedLinkReferences": {}
}